{
  "contractName": "Platform",
  "abi": [
    {
      "inputs": [],
      "stateMutability": "nonpayable",
      "type": "constructor"
    },
    {
      "anonymous": false,
      "inputs": [
        {
          "indexed": true,
          "internalType": "address",
          "name": "worker",
          "type": "address"
        },
        {
          "indexed": true,
          "internalType": "address",
          "name": "task",
          "type": "address"
        },
        {
          "indexed": false,
          "internalType": "uint256",
          "name": "amount",
          "type": "uint256"
        }
      ],
      "name": "WorkerRewarded",
      "type": "event"
    },
    {
      "stateMutability": "payable",
      "type": "fallback"
    },
    {
      "stateMutability": "payable",
      "type": "receive"
    },
    {
      "inputs": [
        {
          "internalType": "address",
          "name": "node",
          "type": "address"
        }
      ],
      "name": "registerRequester",
      "outputs": [],
      "stateMutability": "nonpayable",
      "type": "function"
    },
    {
      "inputs": [
        {
          "internalType": "address",
          "name": "node",
          "type": "address"
        },
        {
          "internalType": "uint256",
          "name": "taskRequired",
          "type": "uint256"
        }
      ],
      "name": "registerWorker",
      "outputs": [],
      "stateMutability": "nonpayable",
      "type": "function"
    },
    {
      "inputs": [
        {
          "internalType": "address payable",
          "name": "worker",
          "type": "address"
        },
        {
          "internalType": "uint256",
          "name": "maskedRewards",
          "type": "uint256"
        },
        {
          "internalType": "uint256",
          "name": "unmaskedRewards",
          "type": "uint256"
        },
        {
          "internalType": "contract Task",
          "name": "t",
          "type": "address"
        }
      ],
      "name": "Rewarding",
      "outputs": [],
      "stateMutability": "nonpayable",
      "type": "function"
    },
    {
      "inputs": [],
      "name": "platformAddress",
      "outputs": [
        {
          "internalType": "address",
          "name": "",
          "type": "address"
        }
      ],
      "stateMutability": "view",
      "type": "function"
    },
    {
      "inputs": [
        {
          "internalType": "address",
          "name": "_arr",
          "type": "address"
        }
      ],
      "name": "reputation",
      "outputs": [
        {
          "internalType": "uint256",
          "name": "",
          "type": "uint256"
        }
      ],
      "stateMutability": "view",
      "type": "function"
    },
    {
      "inputs": [
        {
          "internalType": "address",
          "name": "_arr",
          "type": "address"
        }
      ],
      "name": "increaseReputation",
      "outputs": [],
      "stateMutability": "nonpayable",
      "type": "function"
    },
    {
      "inputs": [
        {
          "internalType": "address",
          "name": "_arr",
          "type": "address"
        }
      ],
      "name": "decreaseRepuation",
      "outputs": [],
      "stateMutability": "nonpayable",
      "type": "function"
    }
  ],
  "bytecode": "0x608060405267ffffffffffffffff60065534801561001c57600080fd5b50336000806101000a81548173ffffffffffffffffffffffffffffffffffffffff021916908373ffffffffffffffffffffffffffffffffffffffff1602179055506111e48061006c6000396000f3fe608060405260043610610091576000357c0100000000000000000000000000000000000000000000000000000000900480637902b1551161006b5780637902b155146101d1578063b9f794511461022c578063dbe55e5614610291578063e4c5d137146102e857610098565b806301c70534146100aa5780632bdde6801461012f5780634f76dc611461018057610098565b3661009857005b34600560008282540192505081905550005b3480156100b657600080fd5b5061012d600480360360808110156100cd57600080fd5b81019080803573ffffffffffffffffffffffffffffffffffffffff1690602001909291908035906020019092919080359060200190929190803573ffffffffffffffffffffffffffffffffffffffff169060200190929190505050610339565b005b34801561013b57600080fd5b5061017e6004803603602081101561015257600080fd5b81019080803573ffffffffffffffffffffffffffffffffffffffff169060200190929190505050610db8565b005b34801561018c57600080fd5b506101cf600480360360208110156101a357600080fd5b81019080803573ffffffffffffffffffffffffffffffffffffffff169060200190929190505050610ea2565b005b3480156101dd57600080fd5b5061022a600480360360408110156101f457600080fd5b81019080803573ffffffffffffffffffffffffffffffffffffffff16906020019092919080359060200190929190505050610ef2565b005b34801561023857600080fd5b5061027b6004803603602081101561024f57600080fd5b81019080803573ffffffffffffffffffffffffffffffffffffffff169060200190929190505050611021565b6040518082815260200191505060405180910390f35b34801561029d57600080fd5b506102a661106a565b604051808273ffffffffffffffffffffffffffffffffffffffff1673ffffffffffffffffffffffffffffffffffffffff16815260200191505060405180910390f35b3480156102f457600080fd5b506103376004803603602081101561030b57600080fd5b81019080803573ffffffffffffffffffffffffffffffffffffffff169060200190929190505050611093565b005b60008173ffffffffffffffffffffffffffffffffffffffff1663b61e96a56040518163ffffffff167c010000000000000000000000000000000000000000000000000000000002815260040160206040518083038186803b15801561039d57600080fd5b505afa1580156103b1573d6000803e3d6000fd5b505050506040513d60208110156103c757600080fd5b810190808051906020019092919050505090508073ffffffffffffffffffffffffffffffffffffffff163373ffffffffffffffffffffffffffffffffffffffff161461045e576040517f08c379a000000000000000000000000000000000000000000000000000000000815260040180806020018281038252605c81526020018061112d605c913960600191505060405180910390fd5b600260008673ffffffffffffffffffffffffffffffffffffffff1673ffffffffffffffffffffffffffffffffffffffff16815260200190815260200160002054600360008773ffffffffffffffffffffffffffffffffffffffff1673ffffffffffffffffffffffffffffffffffffffff168152602001908152602001600020541115610535576040517f08c379a00000000000000000000000000000000000000000000000000000000081526004018080602001828103825260268152602001806111896026913960400191505060405180910390fd5b8173ffffffffffffffffffffffffffffffffffffffff1663269ce69a6040518163ffffffff167c0100000000000000000000000000000000000000000000000000000000028152600401600060405180830381600087803b15801561059957600080fd5b505af11580156105ad573d6000803e3d6000fd5b5050505060065484600460008873ffffffffffffffffffffffffffffffffffffffff1673ffffffffffffffffffffffffffffffffffffffff1681526020019081526020016000205401816105fd57fe5b06600460008773ffffffffffffffffffffffffffffffffffffffff1673ffffffffffffffffffffffffffffffffffffffff168152602001908152602001600020819055506001600360008773ffffffffffffffffffffffffffffffffffffffff1673ffffffffffffffffffffffffffffffffffffffff1681526020019081526020016000206000828254019250508190555060008310610791576106a085610ea2565b8173ffffffffffffffffffffffffffffffffffffffff1663c9242986846040518263ffffffff167c010000000000000000000000000000000000000000000000000000000002815260040180828152602001915050600060405180830381600087803b15801561070f57600080fd5b505af1158015610723573d6000803e3d6000fd5b505050508173ffffffffffffffffffffffffffffffffffffffff168573ffffffffffffffffffffffffffffffffffffffff167f6befaddae276fe4011115007575545073a68b7ae2a6b76fcf07d58f6af4d3054866040518082815260200191505060405180910390a361079b565b61079a85611093565b5b600260008673ffffffffffffffffffffffffffffffffffffffff1673ffffffffffffffffffffffffffffffffffffffff16815260200190815260200160002054600360008773ffffffffffffffffffffffffffffffffffffffff1673ffffffffffffffffffffffffffffffffffffffff168152602001908152602001600020541415610a3857600554600460008773ffffffffffffffffffffffffffffffffffffffff1673ffffffffffffffffffffffffffffffffffffffff1681526020019081526020016000205411156108d8576040517f08c379a000000000000000000000000000000000000000000000000000000000815260040180806020018281038252601c8152602001807f4e6f7420656e6f756768207265776172647320746f2061776172642e0000000081525060200191505060405180910390fd5b600460008673ffffffffffffffffffffffffffffffffffffffff1673ffffffffffffffffffffffffffffffffffffffff168152602001908152602001600020546005600082825403925050819055508473ffffffffffffffffffffffffffffffffffffffff166108fc600460008873ffffffffffffffffffffffffffffffffffffffff1673ffffffffffffffffffffffffffffffffffffffff168152602001908152602001600020549081150290604051600060405180830381858888f193505050501580156109ac573d6000803e3d6000fd5b506000600360008773ffffffffffffffffffffffffffffffffffffffff1673ffffffffffffffffffffffffffffffffffffffff168152602001908152602001600020819055506000600460008773ffffffffffffffffffffffffffffffffffffffff1673ffffffffffffffffffffffffffffffffffffffff168152602001908152602001600020819055505b8173ffffffffffffffffffffffffffffffffffffffff1663b21917816040518163ffffffff167c010000000000000000000000000000000000000000000000000000000002815260040160206040518083038186803b158015610a9a57600080fd5b505afa158015610aae573d6000803e3d6000fd5b505050506040513d6020811015610ac457600080fd5b81019080805190602001909291905050508273ffffffffffffffffffffffffffffffffffffffff1663f12064fd6040518163ffffffff167c010000000000000000000000000000000000000000000000000000000002815260040160206040518083038186803b158015610b3757600080fd5b505afa158015610b4b573d6000803e3d6000fd5b505050506040513d6020811015610b6157600080fd5b8101908080519060200190929190505050148015610c1c575060008273ffffffffffffffffffffffffffffffffffffffff16630e15561a6040518163ffffffff167c010000000000000000000000000000000000000000000000000000000002815260040160206040518083038186803b158015610bde57600080fd5b505afa158015610bf2573d6000803e3d6000fd5b505050506040513d6020811015610c0857600080fd5b810190808051906020019092919050505010155b15610db1578073ffffffffffffffffffffffffffffffffffffffff166108fc8373ffffffffffffffffffffffffffffffffffffffff16630e15561a6040518163ffffffff167c010000000000000000000000000000000000000000000000000000000002815260040160206040518083038186803b158015610c9d57600080fd5b505afa158015610cb1573d6000803e3d6000fd5b505050506040513d6020811015610cc757600080fd5b81019080805190602001909291905050509081150290604051600060405180830381858888f19350505050158015610d03573d6000803e3d6000fd5b508173ffffffffffffffffffffffffffffffffffffffff16630e15561a6040518163ffffffff167c010000000000000000000000000000000000000000000000000000000002815260040160206040518083038186803b158015610d6657600080fd5b505afa158015610d7a573d6000803e3d6000fd5b505050506040513d6020811015610d9057600080fd5b81019080805190602001909291905050506005600082825403925050819055505b5050505050565b600073ffffffffffffffffffffffffffffffffffffffff168173ffffffffffffffffffffffffffffffffffffffff161415610e5b576040517f08c379a000000000000000000000000000000000000000000000000000000000815260040180806020018281038252600f8152602001807f696e76616c69642061646472657373000000000000000000000000000000000081525060200191505060405180910390fd5b60018060008373ffffffffffffffffffffffffffffffffffffffff1673ffffffffffffffffffffffffffffffffffffffff1681526020019081526020016000208190555050565b60018060008373ffffffffffffffffffffffffffffffffffffffff1673ffffffffffffffffffffffffffffffffffffffff1681526020019081526020016000206000828254019250508190555050565b600073ffffffffffffffffffffffffffffffffffffffff168273ffffffffffffffffffffffffffffffffffffffff161415610f95576040517f08c379a000000000000000000000000000000000000000000000000000000000815260040180806020018281038252601e8152602001807f63616e6e6f74207472616e66657220746f207a65726f2061646472657373000081525060200191505060405180910390fd5b60018060008473ffffffffffffffffffffffffffffffffffffffff1673ffffffffffffffffffffffffffffffffffffffff1681526020019081526020016000208190555080600260008473ffffffffffffffffffffffffffffffffffffffff1673ffffffffffffffffffffffffffffffffffffffff168152602001908152602001600020819055505050565b6000600160008373ffffffffffffffffffffffffffffffffffffffff1673ffffffffffffffffffffffffffffffffffffffff168152602001908152602001600020549050919050565b60008060009054906101000a900473ffffffffffffffffffffffffffffffffffffffff16905090565b6000600160008373ffffffffffffffffffffffffffffffffffffffff1673ffffffffffffffffffffffffffffffffffffffff1681526020019081526020016000205411156111295760018060008373ffffffffffffffffffffffffffffffffffffffff1673ffffffffffffffffffffffffffffffffffffffff168152602001908152602001600020600082825403925050819055505b5056fe4f6e6c79207265717565737465722063616e2063616c6c207468697320746f20776f726b6572732077686f207061727469636970616e747320697473207461736b20616e6420686173206e6f74206265656e2072657761726465642e54686520776f726b657220616c726561646c792066696e697368656420697473207461736b73a2646970667358221220283ff33e21e7e9e1d5e1a714733d0385825e5f8176e4827f31296565cfe226f464736f6c63430006030033",
  "source": "// SPDX-License-Identifier: MIT\npragma solidity >=0.6.0 <0.8.0;\nimport \"./Task.sol\";\n\n/** \n * 一个抽象的用来管理worker和requester节点的平台，在进行众包任务时\n * worker和requester首先需要在platform上面进行注册来获取相应的token.\n */\ncontract Platform {\n\n    address _platform;\n    mapping (address => uint256) _reputation;\n    mapping (address => uint256) _workerTaskRequired;\n    mapping (address => uint256) _taskFinished;\n    mapping (address => uint256) _workerAccumulateReward;\n    uint _deposition;\n    uint maxm = (1 << 64) - 1;\n\n    event WorkerRewarded( address indexed worker, address indexed task, uint amount);\n    /**\n     * 平台进行管理\n     */\n    constructor() public {\n        _platform = msg.sender;\n    }\n\n    receive() external payable {\n\n    }\n\n    // 根据Solidity 0.6.2的描述进行修改 https://docs.soliditylang.org/en/v0.6.0/contracts.html#receive-ether-function. \n    // 只有requester上传押金到该智能合约\n    fallback() external payable {\n        _deposition += msg.value;\n    }\n\n    function registerRequester(address node) public {\n        require(node != address(0x0), \"invalid address\");\n        _reputation[node] = 1;\n    }\n    /**\n     * 每个节点都需要向节点注册来获取相应的token\n     */\n    function registerWorker(address node, uint taskRequired) public {\n        require(node != address(0x0), \"cannot tranfer to zero address\");\n        _reputation[node] = 1;\n        _workerTaskRequired[node] = taskRequired;\n    }\n\n    /**\n    * 进行任务奖励\n    * 按照我们设计的协议，任务应该是由Workers直接提交到Requesters的，\n    * 但是目前在这里作为测试用例，在智能合约上面实现该操作\n    */\n    function Rewarding(address payable worker, uint maskedRewards, uint unmaskedRewards, Task t) public {\n        // 只有Requester才能调用此信息\n        address payable requester = t.requester();\n        require(msg.sender == requester, \"Only requester can call this to workers who participants its task and has not been rewarded.\");\n        require(_taskFinished[worker] <= _workerTaskRequired[worker], \"The worker alreadly finished its tasks\");\n        t.addingFinishWorkers();\n        _workerAccumulateReward[worker] = (_workerAccumulateReward[worker]+maskedRewards) % maxm;\n        _taskFinished[worker] += 1;\n        if (unmaskedRewards >= 0) {\n            // 如果该worker任务完成很好，那么则授予一个token给他进行奖励\n            // 于是它下次也可以参与任务\n            increaseReputation(worker);\n            t.rewarding(unmaskedRewards);\n            emit WorkerRewarded(worker, address(t), maskedRewards);\n        }\n        else {\n            decreaseRepuation(worker);\n            // 该worker并没有诚实的参与任务，需要销毁一个token\n            // p.burnFrom(worker, 1);\n        }\n        if (_taskFinished[worker] == _workerTaskRequired[worker]) {\n            require(_workerAccumulateReward[worker] <= _deposition, \"Not enough rewards to award.\");\n            _deposition -= _workerAccumulateReward[worker];\n            worker.transfer(_workerAccumulateReward[worker]);\n            _taskFinished[worker] = 0;\n            _workerAccumulateReward[worker] = 0;\n        }\n        if (t.finishedWorkers() == t.workerRequired() && t.totalRewards() >= 0) {\n            requester.transfer(t.totalRewards());\n            _deposition -= t.totalRewards();\n        }\n    }\n\n    function platformAddress() public view returns (address) {\n        return _platform;\n    }\n\n    function reputation(address _arr) public view returns (uint256) {\n        return _reputation[_arr];\n    }\n\n    function increaseReputation(address _arr) public {\n        _reputation[_arr] += 1;\n    }\n\n    function decreaseRepuation(address _arr) public {\n        if (_reputation[_arr] > 0) {\n            _reputation[_arr] -= 1;\n        }\n    }\n}",
  "sourcePath": "/home/wang/Documents/Codes/Go/PaperExp/Crowdsourcing/solidity/framework/contracts/Platform.sol",
  "compiler": {
    "name": "solc",
    "version": "0.6.3+commit.8dda9521.Linux.g++"
  },
  "schemaVersion": "3.3.1",
  "updatedAt": "2021-08-30T13:45:05.852Z",
  "devdoc": {
    "methods": {}
  },
  "userdoc": {
    "methods": {
      "Rewarding(address,uint256,uint256,address)": {
        "notice": "进行任务奖励 按照我们设计的协议，任务应该是由Workers直接提交到Requesters的， 但是目前在这里作为测试用例，在智能合约上面实现该操作"
      },
      "constructor": "平台进行管理",
      "registerWorker(address,uint256)": {
        "notice": "每个节点都需要向节点注册来获取相应的token"
      }
    },
    "notice": "一个抽象的用来管理worker和requester节点的平台，在进行众包任务时 worker和requester首先需要在platform上面进行注册来获取相应的token."
  }
}