{
  "contractName": "Task",
  "abi": [
    {
      "inputs": [
        {
          "internalType": "uint256",
          "name": "workerRequired",
          "type": "uint256"
        },
        {
          "internalType": "uint256",
          "name": "totalRewards",
          "type": "uint256"
        },
        {
          "internalType": "string",
          "name": "description",
          "type": "string"
        }
      ],
      "stateMutability": "nonpayable",
      "type": "constructor"
    },
    {
      "anonymous": false,
      "inputs": [
        {
          "indexed": true,
          "internalType": "address",
          "name": "_from",
          "type": "address"
        },
        {
          "indexed": false,
          "internalType": "bytes",
          "name": "_data",
          "type": "bytes"
        }
      ],
      "name": "DataSubmitted",
      "type": "event"
    },
    {
      "anonymous": false,
      "inputs": [
        {
          "indexed": false,
          "internalType": "uint256",
          "name": "rewards",
          "type": "uint256"
        },
        {
          "indexed": true,
          "internalType": "address",
          "name": "_requester",
          "type": "address"
        },
        {
          "indexed": false,
          "internalType": "string",
          "name": "_description",
          "type": "string"
        }
      ],
      "name": "TaskPublished",
      "type": "event"
    },
    {
      "anonymous": false,
      "inputs": [
        {
          "indexed": true,
          "internalType": "address",
          "name": "_worker",
          "type": "address"
        },
        {
          "indexed": true,
          "internalType": "address",
          "name": "_requester",
          "type": "address"
        },
        {
          "indexed": false,
          "internalType": "uint256",
          "name": "_remainingWorkers",
          "type": "uint256"
        }
      ],
      "name": "TaskRegistered",
      "type": "event"
    },
    {
      "stateMutability": "payable",
      "type": "fallback"
    },
    {
      "stateMutability": "payable",
      "type": "receive"
    },
    {
      "inputs": [],
      "name": "publish",
      "outputs": [],
      "stateMutability": "nonpayable",
      "type": "function"
    },
    {
      "inputs": [],
      "name": "remainingWorkers",
      "outputs": [
        {
          "internalType": "uint256",
          "name": "rem",
          "type": "uint256"
        }
      ],
      "stateMutability": "view",
      "type": "function"
    },
    {
      "inputs": [],
      "name": "register",
      "outputs": [],
      "stateMutability": "nonpayable",
      "type": "function"
    },
    {
      "inputs": [
        {
          "internalType": "bytes",
          "name": "data",
          "type": "bytes"
        }
      ],
      "name": "SubmitData",
      "outputs": [],
      "stateMutability": "nonpayable",
      "type": "function"
    },
    {
      "inputs": [],
      "name": "addingFinishWorkers",
      "outputs": [],
      "stateMutability": "nonpayable",
      "type": "function"
    },
    {
      "inputs": [
        {
          "internalType": "uint256",
          "name": "rewards",
          "type": "uint256"
        }
      ],
      "name": "rewarding",
      "outputs": [],
      "stateMutability": "nonpayable",
      "type": "function"
    },
    {
      "inputs": [],
      "name": "requester",
      "outputs": [
        {
          "internalType": "address payable",
          "name": "r",
          "type": "address"
        }
      ],
      "stateMutability": "view",
      "type": "function"
    },
    {
      "inputs": [],
      "name": "finishedWorkers",
      "outputs": [
        {
          "internalType": "uint256",
          "name": "",
          "type": "uint256"
        }
      ],
      "stateMutability": "view",
      "type": "function"
    },
    {
      "inputs": [],
      "name": "workerRequired",
      "outputs": [
        {
          "internalType": "uint256",
          "name": "",
          "type": "uint256"
        }
      ],
      "stateMutability": "view",
      "type": "function"
    },
    {
      "inputs": [],
      "name": "totalRewards",
      "outputs": [
        {
          "internalType": "uint256",
          "name": "",
          "type": "uint256"
        }
      ],
      "stateMutability": "view",
      "type": "function"
    }
  ],
  "bytecode": "0x608060405234801561001057600080fd5b50604051610d85380380610d858339818101604052606081101561003357600080fd5b8101908080519060200190929190805190602001909291908051604051939291908464010000000082111561006757600080fd5b8382019150602082018581111561007d57600080fd5b825186600182028301116401000000008211171561009a57600080fd5b8083526020830192505050908051906020019080838360005b838110156100ce5780820151818401526020810190506100b3565b50505050905090810190601f1680156100fb5780820380516001836020036101000a031916815260200191505b5060405250505082600081905550816001819055508060039080519060200190610126929190610180565b5033600460006101000a81548173ffffffffffffffffffffffffffffffffffffffff021916908373ffffffffffffffffffffffffffffffffffffffff16021790555082600681905550600154600581905550505050610225565b828054600181600116156101000203166002900490600052602060002090601f016020900481019282601f106101c157805160ff19168380011785556101ef565b828001600101855582156101ef579182015b828111156101ee5782518255916020019190600101906101d3565b5b5090506101fc9190610200565b5090565b61022291905b8082111561021e576000816000905550600101610206565b5090565b90565b610b51806102346000396000f3fe6080604052600436106100b2576000357c010000000000000000000000000000000000000000000000000000000090048063409ef9e211610076578063409ef9e21461020c578063b2191781146102d4578063b61e96a5146102ff578063c924298614610356578063f12064fd14610391576100b9565b8063075d4782146101715780630e15561a146101885780631aa3a008146101b3578063269ce69a146101ca57806338b270d6146101e1576100b9565b366100b957005b3373ffffffffffffffffffffffffffffffffffffffff16600460009054906101000a900473ffffffffffffffffffffffffffffffffffffffff1673ffffffffffffffffffffffffffffffffffffffff161461015f576040517f08c379a0000000000000000000000000000000000000000000000000000000008152600401808060200182810382526036815260200180610a9c6036913960400191505060405180910390fd5b34600560008282540192505081905550005b34801561017d57600080fd5b506101866103bc565b005b34801561019457600080fd5b5061019d6105c7565b6040518082815260200191505060405180910390f35b3480156101bf57600080fd5b506101c86105d1565b005b3480156101d657600080fd5b506101df610733565b005b3480156101ed57600080fd5b506101f6610746565b6040518082815260200191505060405180910390f35b34801561021857600080fd5b506102d26004803603602081101561022f57600080fd5b810190808035906020019064010000000081111561024c57600080fd5b82018360208201111561025e57600080fd5b8035906020019184600183028401116401000000008311171561028057600080fd5b91908080601f016020809104026020016040519081016040528093929190818152602001838380828437600081840152601f19601f820116905080830192505050505050509192919290505050610750565b005b3480156102e057600080fd5b506102e961093a565b6040518082815260200191505060405180910390f35b34801561030b57600080fd5b50610314610943565b604051808273ffffffffffffffffffffffffffffffffffffffff1673ffffffffffffffffffffffffffffffffffffffff16815260200191505060405180910390f35b34801561036257600080fd5b5061038f6004803603602081101561037957600080fd5b810190808035906020019092919050505061096d565b005b34801561039d57600080fd5b506103a6610980565b6040518082815260200191505060405180910390f35b3373ffffffffffffffffffffffffffffffffffffffff16600460009054906101000a900473ffffffffffffffffffffffffffffffffffffffff1673ffffffffffffffffffffffffffffffffffffffff1614610462576040517f08c379a0000000000000000000000000000000000000000000000000000000008152600401808060200182810382526028815260200180610a306028913960400191505060405180910390fd5b60055460015411156104bf576040517f08c379a0000000000000000000000000000000000000000000000000000000008152600401808060200182810382526044815260200180610a586044913960600191505060405180910390fd5b600554600181905550600460009054906101000a900473ffffffffffffffffffffffffffffffffffffffff1673ffffffffffffffffffffffffffffffffffffffff167f31c1351bb52f89f29d764c4520fd6a6f0d51eff05a2067483c9d3c1a2c12b9b6600154600360405180838152602001806020018281038252838181546001816001161561010002031660029004815260200191508054600181600116156101000203166002900480156105b65780601f1061058b576101008083540402835291602001916105b6565b820191906000526020600020905b81548152906001019060200180831161059957829003601f168201915b5050935050505060405180910390a2565b6000600154905090565b60006006541161062c576040517f08c379a0000000000000000000000000000000000000000000000000000000008152600401808060200182810382526024815260200180610ad26024913960400191505060405180910390fd5b6000339050600660008154809291906001900391905055506002819080600181540180825580915050600190039060005260206000200160009091909190916101000a81548173ffffffffffffffffffffffffffffffffffffffff021916908373ffffffffffffffffffffffffffffffffffffffff160217905550600460009054906101000a900473ffffffffffffffffffffffffffffffffffffffff1673ffffffffffffffffffffffffffffffffffffffff168173ffffffffffffffffffffffffffffffffffffffff167f224eb90d6d6f91b35a68921db160c1eb0d0f59578400445d86e5538e37b305626006546040518082815260200191505060405180910390a350565b6001600760008282540192505081905550565b6000600654905090565b6000600654600054039050600080905060008090505b828110156107ef573373ffffffffffffffffffffffffffffffffffffffff166002828154811061079257fe5b9060005260206000200160009054906101000a900473ffffffffffffffffffffffffffffffffffffffff1673ffffffffffffffffffffffffffffffffffffffff1614156107e257600191506107ef565b8080600101915050610766565b5060088390806001815401808255809150506001900390600052602060002001600090919091909150908051906020019061082b92919061098a565b5080610882576040517f08c379a0000000000000000000000000000000000000000000000000000000008152600401808060200182810382526026815260200180610af66026913960400191505060405180910390fd5b3373ffffffffffffffffffffffffffffffffffffffff167f5548223a2b92aad353ef26dad7dcdb43551e721b55887bb3a8b75f52f7bbc3d3846040518080602001828103825283818151815260200191508051906020019080838360005b838110156108fb5780820151818401526020810190506108e0565b50505050905090810190601f1680156109285780820380516001836020036101000a031916815260200191505b509250505060405180910390a2505050565b60008054905090565b6000600460009054906101000a900473ffffffffffffffffffffffffffffffffffffffff16905090565b8060016000828254039250508190555050565b6000600754905090565b828054600181600116156101000203166002900490600052602060002090601f016020900481019282601f106109cb57805160ff19168380011785556109f9565b828001600101855582156109f9579182015b828111156109f85782518255916020019190600101906109dd565b5b509050610a069190610a0a565b5090565b610a2c91905b80821115610a28576000816000905550600101610a10565b5090565b9056fe4e6f7420656e6f75676820616d6f756e7420746f207061792074686520636f6c6c61746572616c73546865206465706f736974696f6e206d757374206c6172676572207468616e207265776172647320746f20776f726b65727320746f20707562756c697368207461736b2e4f6e6c79207265717565737465722063616e2075706c6f6164207472616e73616374696f6e20746f207468697320636f6e7472616374546865207461736b20646f206e6f74206e65656420776f726b65727320616e796d6f72654f6e6c79207265676973746572656420776f726b65722063616e207375626d69742064617461a26469706673582212200313aab2f7f9094cc41eb148388c68f6cce0a780281a1875e42f1babd06511c864736f6c63430006030033",
  "source": "// SPDX-License-Identifier: MIT\npragma solidity >=0.6.0 <0.8.0;\n\n// import \"@openzeppelin/contracts/token/ERC20/ERC20Burnable.sol\";\n// import \"./Platform.sol\";\n\n// @title 移动众包-智能合约\n// 主要负责处理Workers和Requesters之间的关系，它需要\n// 进行：\n//      1. 负责审核Workers参与任务的请求\n//      2. 当Requesters创建任务时，保存Requesters所需要的押金\ncontract Task {\n    // 对于一个任务，剩下的Workers数量\n    uint _workerRequired;\n    // 计算每个Worker应该获得的奖励\n    uint _totalRewards;\n    address[] _workerAddresses;\n    string _description;\n    address _requester;\n    uint _deposition;\n    uint _remainingWorkers;\n    uint _finishedWorkers;\n    bytes[] _data;\n    // uint256 _reputation;\n     \n    // 负责在特定条件下用来进行交互的Event，进行交易的触发\n    // 假若Requester完成了任务并进行了评估，那么它就会触发一个交易来\n    // 奖励Workers，同时Workers也可以通过监听该信息来判断其\n    // 是否收到了相应的奖励\n    event TaskPublished(uint rewards, address indexed _requester, string _description);\n    event TaskRegistered(address indexed _worker, address indexed _requester, uint _remainingWorkers);\n    event DataSubmitted(address indexed _from, bytes _data);\n\n    /** 为了保证该Smart Contract能够接受来自其他用户的押金\n    * 需要实现Fallback Function. \n    * Requester需要将押金从传递到智能合约的地址\n    * 后期为了进行权限控制，需要判断消息发送者是否真的为Requesters\n    * Workers需要将押金从传递到智能合约的地址 \n    * 后期为了进行权限控制，需要判断消息发送者是否真的为Workers\n    */\n    constructor(uint workerRequired, uint totalRewards, string memory description) public  {\n        _workerRequired = workerRequired;\n        _totalRewards = totalRewards;\n        _description = description;\n        _requester = msg.sender;\n        _remainingWorkers = workerRequired;\n        _deposition = _totalRewards;\n        // _reputation = reputation;\n    }\n\n    receive() external payable {\n\n    }\n\n    // 根据Solidity 0.6.2的描述进行修改 https://docs.soliditylang.org/en/v0.6.0/contracts.html#receive-ether-function.\n    // 只有requester上传押金到该智能合约\n    fallback() external payable {\n        require(_requester == msg.sender, \"Only requester can upload transaction to this contract\");\n        _deposition += msg.value;\n    }\n   \n    /** 将该众包任务发布到链上，所有成员都可以选择是否参加该任务\n    *  该过程会触发一个event，链上节点看到该event可以自由选择是\n    *  否参加该任务.     \n    */\n    function publish() public {\n        // 对任务的信息进行记录，包括保存任务的押金，记录任务需要的人数\n        require (_requester == msg.sender, \"Not enough amount to pay the collaterals\");\n        require (_totalRewards <= _deposition, \"The deposition must larger than rewards to workers to pubulish task.\");\n        // 在requester使用自己的伪名进行任务发布以后，requester能够获得token的分发\n        // 并且在workers完成任务的时候才能够获得token作为奖励\n        _totalRewards = _deposition;\n        emit TaskPublished(_totalRewards, _requester, _description);\n    }\n    // 给定一个地址，查看其所需要的Workers数量是否已满\n    function remainingWorkers() public view returns (uint rem) {\n        rem = _remainingWorkers;\n    }\n    /** Workers在链上看到该任务就可以参与该任务\n    * 但是workers在注册时会被基于一个不记名的token，该token时一个\n    * 参与的凭证\n    */\n    function register() public {\n        require(_remainingWorkers > 0, \"The task do not need workers anymore\");\n        // require(p.reputation(msg.sender) >= _reputation, \"Not enough reputation to participant the task\");\n        address worker = msg.sender;\n        // require (balanceOf(worker) > 0, \"Only worker with token can participant the task\");\n        // 此时任务算是被workers接受了\n        _remainingWorkers--;\n        // 保存所有用户地址\n        _workerAddresses.push(worker);\n        emit TaskRegistered(worker, _requester, _remainingWorkers);\n    }\n\n    /** Workers进行任务上传\n    * 它应该上传的是一个加密的数据包，或者当数据直接在区块链上面\n    * 进行传递时不划算了，那么则应该上传相应对应数据块的索引，这样\n    * 相应Requester就能够找到并对其进行访问\n    */\n    function SubmitData(bytes memory data) public {\n        // 只有注册了的worker才可以上传数据\n        uint currentWorkers = _workerRequired - _remainingWorkers;\n        bool inWorkers = false;\n        for (uint i = 0; i < currentWorkers; i++) {\n            if (_workerAddresses[i] == msg.sender) {\n                inWorkers = true; break;\n            }\n        }\n        _data.push(data);\n        require(inWorkers, \"Only registered worker can submit data\");\n        emit DataSubmitted(msg.sender, data); // Requester by subscription to track the process of the current task\n    }\n    /**\n    * 进行任务奖励\n    * 按照我们设计的协议，任务应该是由Workers直接提交到Requesters的，\n    * 但是目前在这里作为测试用例，在智能合约上面实现该操作\n    */\n    // function Rewarding(address payable worker, uint rewards, Platform p) public {\n    //     // 只有Requester才能调用此信息\n    //     require(msg.sender == _requester, \"Only requester can call this to workers who participants its task and has not been rewarded.\");\n    //     require(_totalRewards >= rewards, \"Not enough rewards to award.\");\n    //     _finishedWorkers += 1;\n    //     if (rewards >= 0) {\n    //         worker.transfer(rewards);\n    //         // 如果该worker任务完成很好，那么则授予一个token给他进行奖励\n    //         // 于是它下次也可以参与任务\n    //         p.increaseReputation(worker);\n    //         _totalRewards -= rewards;\n    //     }\n    //     else {\n    //         p.decreaseRepuation(worker);\n    //         // 该worker并没有诚实的参与任务，需要销毁一个token\n    //         // p.burnFrom(worker, 1);\n    //     }\n    //     if (_finishedWorkers == _workerRequired && _totalRewards >= 0) {\n    //         msg.sender.transfer(_totalRewards);\n    //     }\n    // }\n\n    function addingFinishWorkers() public {\n        _finishedWorkers += 1;\n    }\n\n    function rewarding(uint rewards) public {\n        _totalRewards -= rewards;\n    }\n\n    function requester() public view returns (address payable r) {\n        r = payable(_requester);\n    }\n\n    function finishedWorkers() public view returns (uint) {\n        return _finishedWorkers;\n    }\n\n    function workerRequired() public view returns (uint) {\n        return _workerRequired;\n    }\n\n    function totalRewards() public view returns (uint) {\n        return _totalRewards;\n    }\n\n    // 辅助函数，用来进行从uint到string的转化，这一步主要是帮助Contracts进行任务的转化\n    function uintToString(uint v) internal pure returns (string memory str) {\n        uint maxlength = 100;\n        bytes memory reversed = new bytes(maxlength);\n        uint i = 0;\n        while (v != 0) {\n            uint remainder = v % 10;\n            v = v / 10;\n            reversed[i++] = byte(uint8(48 + remainder));\n        }\n        bytes memory s = new bytes(i);\n        for (uint j = 0; j < i; j++) {\n            s[j] = reversed[i - 1 - j];\n        }\n        str = string(s);\n    }\n\n    function addString(string memory a, string memory b) internal pure returns (string memory) {\n        return string(abi.encodePacked(a, b));\n    }\n    // 将字符串转化为固定长度的Bytes32，这样客户端可以很方便的将Event重新转化为字符串再进行描述\n    function stringToBytes32(string memory source) internal pure returns (bytes32 result) {\n        bytes memory tempEmptyStringTest = bytes(source);\n        if (tempEmptyStringTest.length == 0) {\n            return 0x0;\n        }\n        assembly {\n            result := mload(add(source, 32))\n        }\n    }\n}\n",
  "sourcePath": "/home/wang/Documents/Codes/Go/PaperExp/Crowdsourcing/solidity/framework/contracts/Task.sol",
  "compiler": {
    "name": "solc",
    "version": "0.6.3+commit.8dda9521.Linux.g++"
  },
  "schemaVersion": "3.3.1",
  "updatedAt": "2021-08-30T13:45:05.855Z",
  "devdoc": {
    "methods": {}
  },
  "userdoc": {
    "methods": {
      "SubmitData(bytes)": {
        "notice": "Workers进行任务上传 它应该上传的是一个加密的数据包，或者当数据直接在区块链上面 进行传递时不划算了，那么则应该上传相应对应数据块的索引，这样 相应Requester就能够找到并对其进行访问"
      },
      "addingFinishWorkers()": {
        "notice": "进行任务奖励 按照我们设计的协议，任务应该是由Workers直接提交到Requesters的， 但是目前在这里作为测试用例，在智能合约上面实现该操作"
      },
      "constructor": "为了保证该Smart Contract能够接受来自其他用户的押金 需要实现Fallback Function.  Requester需要将押金从传递到智能合约的地址 后期为了进行权限控制，需要判断消息发送者是否真的为Requesters Workers需要将押金从传递到智能合约的地址  后期为了进行权限控制，需要判断消息发送者是否真的为Workers",
      "publish()": {
        "notice": "将该众包任务发布到链上，所有成员都可以选择是否参加该任务 该过程会触发一个event，链上节点看到该event可以自由选择是 否参加该任务.     "
      },
      "register()": {
        "notice": "Workers在链上看到该任务就可以参与该任务 但是workers在注册时会被基于一个不记名的token，该token时一个 参与的凭证"
      }
    }
  }
}